{
  "contractName": "WebOfTrust",
  "abi": [
    {
      "inputs": [
        {
          "internalType": "uint256",
          "name": "",
          "type": "uint256"
        }
      ],
      "name": "identities",
      "outputs": [
        {
          "internalType": "uint256",
          "name": "id",
          "type": "uint256"
        },
        {
          "internalType": "string",
          "name": "name",
          "type": "string"
        },
        {
          "internalType": "address",
          "name": "profile",
          "type": "address"
        }
      ],
      "stateMutability": "view",
      "type": "function",
      "constant": true
    },
    {
      "inputs": [
        {
          "internalType": "address",
          "name": "",
          "type": "address"
        }
      ],
      "name": "identity_address_proposals",
      "outputs": [
        {
          "internalType": "uint256",
          "name": "",
          "type": "uint256"
        }
      ],
      "stateMutability": "view",
      "type": "function",
      "constant": true
    },
    {
      "inputs": [
        {
          "internalType": "string",
          "name": "",
          "type": "string"
        }
      ],
      "name": "names",
      "outputs": [
        {
          "internalType": "uint256",
          "name": "",
          "type": "uint256"
        }
      ],
      "stateMutability": "view",
      "type": "function",
      "constant": true
    },
    {
      "inputs": [],
      "name": "registered",
      "outputs": [
        {
          "internalType": "bool",
          "name": "",
          "type": "bool"
        }
      ],
      "stateMutability": "view",
      "type": "function",
      "constant": true
    },
    {
      "inputs": [
        {
          "internalType": "string",
          "name": "name",
          "type": "string"
        }
      ],
      "name": "register",
      "outputs": [],
      "stateMutability": "nonpayable",
      "type": "function"
    },
    {
      "inputs": [],
      "name": "get_identity",
      "outputs": [
        {
          "components": [
            {
              "internalType": "uint256",
              "name": "id",
              "type": "uint256"
            },
            {
              "internalType": "address[]",
              "name": "addresses",
              "type": "address[]"
            },
            {
              "internalType": "string",
              "name": "name",
              "type": "string"
            },
            {
              "internalType": "uint256[]",
              "name": "ratings_given",
              "type": "uint256[]"
            },
            {
              "internalType": "uint256[]",
              "name": "ratings_received",
              "type": "uint256[]"
            },
            {
              "internalType": "address",
              "name": "profile",
              "type": "address"
            }
          ],
          "internalType": "struct WebOfTrust.Identity",
          "name": "",
          "type": "tuple"
        }
      ],
      "stateMutability": "view",
      "type": "function",
      "constant": true
    },
    {
      "inputs": [
        {
          "internalType": "string",
          "name": "name",
          "type": "string"
        }
      ],
      "name": "get_identity_by_name",
      "outputs": [
        {
          "components": [
            {
              "internalType": "uint256",
              "name": "id",
              "type": "uint256"
            },
            {
              "internalType": "address[]",
              "name": "addresses",
              "type": "address[]"
            },
            {
              "internalType": "string",
              "name": "name",
              "type": "string"
            },
            {
              "internalType": "uint256[]",
              "name": "ratings_given",
              "type": "uint256[]"
            },
            {
              "internalType": "uint256[]",
              "name": "ratings_received",
              "type": "uint256[]"
            },
            {
              "internalType": "address",
              "name": "profile",
              "type": "address"
            }
          ],
          "internalType": "struct WebOfTrust.Identity",
          "name": "",
          "type": "tuple"
        }
      ],
      "stateMutability": "view",
      "type": "function",
      "constant": true
    },
    {
      "inputs": [
        {
          "internalType": "uint256",
          "name": "identity_id",
          "type": "uint256"
        }
      ],
      "name": "get_identity_by_id",
      "outputs": [
        {
          "components": [
            {
              "internalType": "uint256",
              "name": "id",
              "type": "uint256"
            },
            {
              "internalType": "address[]",
              "name": "addresses",
              "type": "address[]"
            },
            {
              "internalType": "string",
              "name": "name",
              "type": "string"
            },
            {
              "internalType": "uint256[]",
              "name": "ratings_given",
              "type": "uint256[]"
            },
            {
              "internalType": "uint256[]",
              "name": "ratings_received",
              "type": "uint256[]"
            },
            {
              "internalType": "address",
              "name": "profile",
              "type": "address"
            }
          ],
          "internalType": "struct WebOfTrust.Identity",
          "name": "",
          "type": "tuple"
        }
      ],
      "stateMutability": "view",
      "type": "function",
      "constant": true
    },
    {
      "inputs": [
        {
          "internalType": "uint256",
          "name": "identity_id",
          "type": "uint256"
        }
      ],
      "name": "get_outbound_peers",
      "outputs": [
        {
          "components": [
            {
              "components": [
                {
                  "internalType": "uint256",
                  "name": "id",
                  "type": "uint256"
                },
                {
                  "internalType": "address[]",
                  "name": "addresses",
                  "type": "address[]"
                },
                {
                  "internalType": "string",
                  "name": "name",
                  "type": "string"
                },
                {
                  "internalType": "uint256[]",
                  "name": "ratings_given",
                  "type": "uint256[]"
                },
                {
                  "internalType": "uint256[]",
                  "name": "ratings_received",
                  "type": "uint256[]"
                },
                {
                  "internalType": "address",
                  "name": "profile",
                  "type": "address"
                }
              ],
              "internalType": "struct WebOfTrust.Identity",
              "name": "identity",
              "type": "tuple"
            },
            {
              "internalType": "int256",
              "name": "rating_given",
              "type": "int256"
            },
            {
              "internalType": "int256",
              "name": "rating_received",
              "type": "int256"
            }
          ],
          "internalType": "struct WebOfTrust.Peer[]",
          "name": "",
          "type": "tuple[]"
        }
      ],
      "stateMutability": "view",
      "type": "function",
      "constant": true
    },
    {
      "inputs": [
        {
          "internalType": "uint256",
          "name": "identity_id",
          "type": "uint256"
        }
      ],
      "name": "get_inbound_peers",
      "outputs": [
        {
          "components": [
            {
              "components": [
                {
                  "internalType": "uint256",
                  "name": "id",
                  "type": "uint256"
                },
                {
                  "internalType": "address[]",
                  "name": "addresses",
                  "type": "address[]"
                },
                {
                  "internalType": "string",
                  "name": "name",
                  "type": "string"
                },
                {
                  "internalType": "uint256[]",
                  "name": "ratings_given",
                  "type": "uint256[]"
                },
                {
                  "internalType": "uint256[]",
                  "name": "ratings_received",
                  "type": "uint256[]"
                },
                {
                  "internalType": "address",
                  "name": "profile",
                  "type": "address"
                }
              ],
              "internalType": "struct WebOfTrust.Identity",
              "name": "identity",
              "type": "tuple"
            },
            {
              "internalType": "int256",
              "name": "rating_given",
              "type": "int256"
            },
            {
              "internalType": "int256",
              "name": "rating_received",
              "type": "int256"
            }
          ],
          "internalType": "struct WebOfTrust.Peer[]",
          "name": "",
          "type": "tuple[]"
        }
      ],
      "stateMutability": "view",
      "type": "function",
      "constant": true
    },
    {
      "inputs": [
        {
          "internalType": "string",
          "name": "name",
          "type": "string"
        }
      ],
      "name": "propose_address",
      "outputs": [],
      "stateMutability": "nonpayable",
      "type": "function"
    },
    {
      "inputs": [
        {
          "internalType": "address",
          "name": "proposed_address",
          "type": "address"
        }
      ],
      "name": "claim_address",
      "outputs": [],
      "stateMutability": "nonpayable",
      "type": "function"
    },
    {
      "inputs": [
        {
          "internalType": "string",
          "name": "name",
          "type": "string"
        },
        {
          "internalType": "int256",
          "name": "rating",
          "type": "int256"
        }
      ],
      "name": "rate",
      "outputs": [],
      "stateMutability": "nonpayable",
      "type": "function"
    },
    {
      "inputs": [
        {
          "internalType": "string",
          "name": "name",
          "type": "string"
        }
      ],
      "name": "unrate",
      "outputs": [],
      "stateMutability": "nonpayable",
      "type": "function"
    },
    {
      "inputs": [
        {
          "internalType": "string",
          "name": "from_name",
          "type": "string"
        },
        {
          "internalType": "string",
          "name": "to_name",
          "type": "string"
        }
      ],
      "name": "gettrust",
      "outputs": [
        {
          "internalType": "int256",
          "name": "",
          "type": "int256"
        },
        {
          "internalType": "int256",
          "name": "",
          "type": "int256"
        }
      ],
      "stateMutability": "view",
      "type": "function",
      "constant": true
    }
  ],
  "bytecode": "0x60806040526000805534801561001457600080fd5b506139a0806100246000396000f3fe608060405234801561001057600080fd5b50600436106100f55760003560e01c8063be87e04111610097578063e2a54cb911610066578063e2a54cb9146102bf578063eaaf77e6146102db578063ebb397971461030d578063f2c298be14610329576100f5565b8063be87e04114610239578063ccb4e81214610255578063dab3398514610285578063e14b7f9f146102a3576100f5565b80634a8587b0116100d35780634a8587b01461017957806359fedb5a146101a9578063822fbf58146101d9578063a7f5b99414610209576100f5565b80632de40ce3146100fa578063456c80cf14610118578063498e5bb814610148575b600080fd5b610102610345565b60405161010f9190612590565b60405180910390f35b610132600480360381019061012d91906125f5565b610449565b60405161013f9190612a32565b60405180910390f35b610162600480360381019061015d9190612ab9565b6107f4565b604051610170929190612b49565b60405180910390f35b610193600480360381019061018e9190612b9e565b610b76565b6040516101a09190612bda565b60405180910390f35b6101c360048036038101906101be9190612bf5565b610b8e565b6040516101d09190612ce0565b60405180910390f35b6101f360048036038101906101ee9190612e32565b610e0c565b6040516102009190612bda565b60405180910390f35b610223600480360381019061021e91906125f5565b610e3a565b6040516102309190612a32565b60405180910390f35b610253600480360381019061024e9190612bf5565b6111e5565b005b61026f600480360381019061026a91906125f5565b6114b2565b60405161027c9190612ce0565b60405180910390f35b61028d61170f565b60405161029a9190612ce0565b60405180910390f35b6102bd60048036038101906102b89190612ea7565b611a89565b005b6102d960048036038101906102d49190612bf5565b611d27565b005b6102f560048036038101906102f091906125f5565b611dee565b60405161030493929190612f60565b60405180910390f35b61032760048036038101906103229190612b9e565b611ec0565b005b610343600480360381019061033e9190612bf5565b612197565b005b60008060026000600360003373ffffffffffffffffffffffffffffffffffffffff1673ffffffffffffffffffffffffffffffffffffffff168152602001908152602001600020548152602001908152602001600020905060005b816001018054905081101561043f573373ffffffffffffffffffffffffffffffffffffffff168260010182815481106103db576103da612f9e565b5b9060005260206000200160009054906101000a900473ffffffffffffffffffffffffffffffffffffffff1673ffffffffffffffffffffffffffffffffffffffff160361042c57600192505050610446565b808061043790612ffc565b91505061039f565b5060009150505b90565b6060600060026000848152602001908152602001600020905060008160040180549050905060008167ffffffffffffffff81111561048a57610489612d07565b5b6040519080825280602002602001820160405280156104c357816020015b6104b061245f565b8152602001906001900390816104a85790505b50905060005b828110156107e8576000600260008660030184815481106104ed576104ec612f9e565b5b9060005260206000200154815260200190815260200160002090506040518060600160405280826040518060c001604052908160008201548152602001600182018054806020026020016040519081016040528092919081815260200182805480156105ae57602002820191906000526020600020905b8160009054906101000a900473ffffffffffffffffffffffffffffffffffffffff1673ffffffffffffffffffffffffffffffffffffffff1681526020019060010190808311610564575b505050505081526020016002820180546105c790613073565b80601f01602080910402602001604051908101604052809291908181526020018280546105f390613073565b80156106405780601f1061061557610100808354040283529160200191610640565b820191906000526020600020905b81548152906001019060200180831161062357829003601f168201915b505050505081526020016003820180548060200260200160405190810160405280929190818152602001828054801561069857602002820191906000526020600020905b815481526020019060010190808311610684575b50505050508152602001600482018054806020026020016040519081016040528092919081815260200182805480156106f057602002820191906000526020600020905b8154815260200190600101908083116106dc575b505050505081526020016005820160009054906101000a900473ffffffffffffffffffffffffffffffffffffffff1673ffffffffffffffffffffffffffffffffffffffff1673ffffffffffffffffffffffffffffffffffffffff1681525050815260200160046000846000015481526020019081526020016000206000886000015481526020019081526020016000205481526020016004600088600001548152602001908152602001600020600084600001548152602001908152602001600020548152508383815181106107c9576107c8612f9e565b5b60200260200101819052505080806107e090612ffc565b9150506104c9565b50809350505050919050565b60008060006001878760405161080b9291906130d4565b90815260200160405180910390205490506000811161085f576040517f08c379a000000000000000000000000000000000000000000000000000000000815260040161085690613139565b60405180910390fd5b6000600186866040516108739291906130d4565b9081526020016040518091039020549050600081116108c7576040517f08c379a00000000000000000000000000000000000000000000000000000000081526004016108be906131a5565b60405180910390fd5b600080600260008581526020019081526020016000206040518060c0016040529081600082015481526020016001820180548060200260200160405190810160405280929190818152602001828054801561097757602002820191906000526020600020905b8160009054906101000a900473ffffffffffffffffffffffffffffffffffffffff1673ffffffffffffffffffffffffffffffffffffffff168152602001906001019080831161092d575b5050505050815260200160028201805461099090613073565b80601f01602080910402602001604051908101604052809291908181526020018280546109bc90613073565b8015610a095780601f106109de57610100808354040283529160200191610a09565b820191906000526020600020905b8154815290600101906020018083116109ec57829003601f168201915b5050505050815260200160038201805480602002602001604051908101604052809291908181526020018280548015610a6157602002820191906000526020600020905b815481526020019060010190808311610a4d575b5050505050815260200160048201805480602002602001604051908101604052809291908181526020018280548015610ab957602002820191906000526020600020905b815481526020019060010190808311610aa5575b505050505081526020016005820160009054906101000a900473ffffffffffffffffffffffffffffffffffffffff1673ffffffffffffffffffffffffffffffffffffffff1673ffffffffffffffffffffffffffffffffffffffff1681525050905060005b816060015151811015610b3d578080610b3590612ffc565b915050610b1d565b50600460008581526020019081526020016000206000848152602001908152602001600020546000955095505050505094509492505050565b60036020528060005260406000206000915090505481565b610b96612486565b6002600060018585604051610bac9291906130d4565b90815260200160405180910390205481526020019081526020016000206040518060c00160405290816000820154815260200160018201805480602002602001604051908101604052809291908181526020018280548015610c6357602002820191906000526020600020905b8160009054906101000a900473ffffffffffffffffffffffffffffffffffffffff1673ffffffffffffffffffffffffffffffffffffffff1681526020019060010190808311610c19575b50505050508152602001600282018054610c7c90613073565b80601f0160208091040260200160405190810160405280929190818152602001828054610ca890613073565b8015610cf55780601f10610cca57610100808354040283529160200191610cf5565b820191906000526020600020905b815481529060010190602001808311610cd857829003601f168201915b5050505050815260200160038201805480602002602001604051908101604052809291908181526020018280548015610d4d57602002820191906000526020600020905b815481526020019060010190808311610d39575b5050505050815260200160048201805480602002602001604051908101604052809291908181526020018280548015610da557602002820191906000526020600020905b815481526020019060010190808311610d91575b505050505081526020016005820160009054906101000a900473ffffffffffffffffffffffffffffffffffffffff1673ffffffffffffffffffffffffffffffffffffffff1673ffffffffffffffffffffffffffffffffffffffff1681525050905092915050565b6001818051602081018201805184825260208301602085012081835280955050505050506000915090505481565b6060600060026000848152602001908152602001600020905060008160030180549050905060008167ffffffffffffffff811115610e7b57610e7a612d07565b5b604051908082528060200260200182016040528015610eb457816020015b610ea161245f565b815260200190600190039081610e995790505b50905060005b828110156111d957600060026000866003018481548110610ede57610edd612f9e565b5b9060005260206000200154815260200190815260200160002090506040518060600160405280826040518060c00160405290816000820154815260200160018201805480602002602001604051908101604052809291908181526020018280548015610f9f57602002820191906000526020600020905b8160009054906101000a900473ffffffffffffffffffffffffffffffffffffffff1673ffffffffffffffffffffffffffffffffffffffff1681526020019060010190808311610f55575b50505050508152602001600282018054610fb890613073565b80601f0160208091040260200160405190810160405280929190818152602001828054610fe490613073565b80156110315780601f1061100657610100808354040283529160200191611031565b820191906000526020600020905b81548152906001019060200180831161101457829003601f168201915b505050505081526020016003820180548060200260200160405190810160405280929190818152602001828054801561108957602002820191906000526020600020905b815481526020019060010190808311611075575b50505050508152602001600482018054806020026020016040519081016040528092919081815260200182805480156110e157602002820191906000526020600020905b8154815260200190600101908083116110cd575b505050505081526020016005820160009054906101000a900473ffffffffffffffffffffffffffffffffffffffff1673ffffffffffffffffffffffffffffffffffffffff1673ffffffffffffffffffffffffffffffffffffffff1681525050815260200160046000886000015481526020019081526020016000206000846000015481526020019081526020016000205481526020016004600084600001548152602001908152602001600020600088600001548152602001908152602001600020548152508383815181106111ba576111b9612f9e565b5b60200260200101819052505080806111d190612ffc565b915050610eba565b50809350505050919050565b600060026000600360003373ffffffffffffffffffffffffffffffffffffffff1673ffffffffffffffffffffffffffffffffffffffff16815260200190815260200160002054815260200190815260200160002090506000816000015411611282576040517f08c379a000000000000000000000000000000000000000000000000000000000815260040161127990613237565b60405180910390fd5b6000600260006001868660405161129a9291906130d4565b908152602001604051809103902054815260200190815260200160002090506000816000015411611300576040517f08c379a00000000000000000000000000000000000000000000000000000000081526004016112f7906132c9565b60405180910390fd5b60005b82600301805490508110156113ad57816000015483600301828154811061132d5761132c612f9e565b5b90600052602060002001540361139a57826003016001846003018054905061135591906132e9565b8154811061136657611365612f9e565b5b906000526020600020015483600301828154811061138757611386612f9e565b5b90600052602060002001819055506113ad565b80806113a590612ffc565b915050611303565b5060005b816004018054905081101561145b5781600001548260040182815481106113db576113da612f9e565b5b90600052602060002001540361144857816004016001836004018054905061140391906132e9565b8154811061141457611413612f9e565b5b906000526020600020015482600401828154811061143557611434612f9e565b5b906000526020600020018190555061145b565b808061145390612ffc565b9150506113b1565b508160030181600001548154811061147657611475612f9e565b5b90600052602060002001600090558060040182600001548154811061149e5761149d612f9e565b5b906000526020600020016000905550505050565b6114ba612486565b600260008381526020019081526020016000206040518060c0016040529081600082015481526020016001820180548060200260200160405190810160405280929190818152602001828054801561156757602002820191906000526020600020905b8160009054906101000a900473ffffffffffffffffffffffffffffffffffffffff1673ffffffffffffffffffffffffffffffffffffffff168152602001906001019080831161151d575b5050505050815260200160028201805461158090613073565b80601f01602080910402602001604051908101604052809291908181526020018280546115ac90613073565b80156115f95780601f106115ce576101008083540402835291602001916115f9565b820191906000526020600020905b8154815290600101906020018083116115dc57829003601f168201915b505050505081526020016003820180548060200260200160405190810160405280929190818152602001828054801561165157602002820191906000526020600020905b81548152602001906001019080831161163d575b50505050508152602001600482018054806020026020016040519081016040528092919081815260200182805480156116a957602002820191906000526020600020905b815481526020019060010190808311611695575b505050505081526020016005820160009054906101000a900473ffffffffffffffffffffffffffffffffffffffff1673ffffffffffffffffffffffffffffffffffffffff1673ffffffffffffffffffffffffffffffffffffffff16815250509050919050565b611717612486565b600060026000600360003373ffffffffffffffffffffffffffffffffffffffff1673ffffffffffffffffffffffffffffffffffffffff168152602001908152602001600020548152602001908152602001600020905060005b8160010180549050811015611a4a573373ffffffffffffffffffffffffffffffffffffffff168260010182815481106117ac576117ab612f9e565b5b9060005260206000200160009054906101000a900473ffffffffffffffffffffffffffffffffffffffff1673ffffffffffffffffffffffffffffffffffffffff1603611a3757816040518060c0016040529081600082015481526020016001820180548060200260200160405190810160405280929190818152602001828054801561188d57602002820191906000526020600020905b8160009054906101000a900473ffffffffffffffffffffffffffffffffffffffff1673ffffffffffffffffffffffffffffffffffffffff1681526020019060010190808311611843575b505050505081526020016002820180546118a690613073565b80601f01602080910402602001604051908101604052809291908181526020018280546118d290613073565b801561191f5780601f106118f45761010080835404028352916020019161191f565b820191906000526020600020905b81548152906001019060200180831161190257829003601f168201915b505050505081526020016003820180548060200260200160405190810160405280929190818152602001828054801561197757602002820191906000526020600020905b815481526020019060010190808311611963575b50505050508152602001600482018054806020026020016040519081016040528092919081815260200182805480156119cf57602002820191906000526020600020905b8154815260200190600101908083116119bb575b505050505081526020016005820160009054906101000a900473ffffffffffffffffffffffffffffffffffffffff1673ffffffffffffffffffffffffffffffffffffffff1673ffffffffffffffffffffffffffffffffffffffff168152505092505050611a86565b8080611a4290612ffc565b915050611770565b506040517f08c379a0000000000000000000000000000000000000000000000000000000008152600401611a7d9061338f565b60405180910390fd5b90565b807ffffffffffffffffffffffffffffffffffffffffffffffffffffffffffffffff613158015611ab95750600081125b80611ad15750806000128015611ad05750600a8113155b5b611b10576040517f08c379a0000000000000000000000000000000000000000000000000000000008152600401611b0790613421565b60405180910390fd5b600060026000600360003373ffffffffffffffffffffffffffffffffffffffff1673ffffffffffffffffffffffffffffffffffffffff16815260200190815260200160002054815260200190815260200160002090506000816000015411611bad576040517f08c379a0000000000000000000000000000000000000000000000000000000008152600401611ba490613237565b60405180910390fd5b60006002600060018787604051611bc59291906130d4565b908152602001604051809103902054815260200190815260200160002090506000816000015411611c2b576040517f08c379a0000000000000000000000000000000000000000000000000000000008152600401611c229061348d565b60405180910390fd5b600060046000846000015481526020019081526020016000206000836000015481526020019081526020016000205403611cbe57816003018160000154908060018154018082558091505060019003906000526020600020016000909190919091505580600401826000015490806001815401808255809150506001900390600052602060002001600090919091909150555b82600460008460000154815260200190815260200160002060008360000154815260200190815260200160002081905550826005600083600001548152602001908152602001600020600084600001548152602001908152602001600020819055505050505050565b60006002600060018585604051611d3f9291906130d4565b908152602001604051809103902054815260200190815260200160002060000154905060008111611da5576040517f08c379a0000000000000000000000000000000000000000000000000000000008152600401611d9c906134f9565b60405180910390fd5b80600360003373ffffffffffffffffffffffffffffffffffffffff1673ffffffffffffffffffffffffffffffffffffffff16815260200190815260200160002081905550505050565b6002602052806000526040600020600091509050806000015490806002018054611e1790613073565b80601f0160208091040260200160405190810160405280929190818152602001828054611e4390613073565b8015611e905780601f10611e6557610100808354040283529160200191611e90565b820191906000526020600020905b815481529060010190602001808311611e7357829003601f168201915b5050505050908060050160009054906101000a900473ffffffffffffffffffffffffffffffffffffffff16905083565b3373ffffffffffffffffffffffffffffffffffffffff168173ffffffffffffffffffffffffffffffffffffffff1603611f2e576040517f08c379a0000000000000000000000000000000000000000000000000000000008152600401611f2590613565565b60405180910390fd5b6000600360003373ffffffffffffffffffffffffffffffffffffffff1673ffffffffffffffffffffffffffffffffffffffff16815260200190815260200160002054905060008111611fb5576040517f08c379a0000000000000000000000000000000000000000000000000000000008152600401611fac906135f7565b60405180910390fd5b60006002600083815260200190815260200160002090506000816000015411612013576040517f08c379a000000000000000000000000000000000000000000000000000000000815260040161200a90613689565b60405180910390fd5b60005b816001018054905081101561215857600082600101828154811061203d5761203c612f9e565b5b9060005260206000200160009054906101000a900473ffffffffffffffffffffffffffffffffffffffff1690503373ffffffffffffffffffffffffffffffffffffffff168173ffffffffffffffffffffffffffffffffffffffff161480156120d157508473ffffffffffffffffffffffffffffffffffffffff168173ffffffffffffffffffffffffffffffffffffffff1614155b156121445782600101859080600181540180825580915050600190039060005260206000200160009091909190916101000a81548173ffffffffffffffffffffffffffffffffffffffff021916908373ffffffffffffffffffffffffffffffffffffffff16021790555050505050612194565b50808061215090612ffc565b915050612016565b506040517f08c379a000000000000000000000000000000000000000000000000000000000815260040161218b90613741565b60405180910390fd5b50565b60028282905010156121de576040517f08c379a00000000000000000000000000000000000000000000000000000000081526004016121d5906137ad565b60405180910390fd5b6064828290501115612225576040517f08c379a000000000000000000000000000000000000000000000000000000000815260040161221c90613819565b60405180910390fd5b6000600183836040516122399291906130d4565b90815260200160405180910390205414612288576040517f08c379a000000000000000000000000000000000000000000000000000000000815260040161227f90613885565b60405180910390fd5b3073ffffffffffffffffffffffffffffffffffffffff16632de40ce36040518163ffffffff1660e01b8152600401602060405180830381865afa1580156122d3573d6000803e3d6000fd5b505050506040513d601f19601f820116820180604052508101906122f791906138d1565b15612337576040517f08c379a000000000000000000000000000000000000000000000000000000000815260040161232e9061394a565b60405180910390fd5b6000806000815461234790612ffc565b9190508190559050600060026000838152602001908152602001600020905081816000018190555080600101339080600181540180825580915050600190039060005260206000200160009091909190916101000a81548173ffffffffffffffffffffffffffffffffffffffff021916908373ffffffffffffffffffffffffffffffffffffffff16021790555083838260020191906123e79291906124d2565b508060000154600360003373ffffffffffffffffffffffffffffffffffffffff1673ffffffffffffffffffffffffffffffffffffffff168152602001908152602001600020819055508060000154600185856040516124479291906130d4565b90815260200160405180910390208190555050505050565b6040518060600160405280612472612486565b815260200160008152602001600081525090565b6040518060c001604052806000815260200160608152602001606081526020016060815260200160608152602001600073ffffffffffffffffffffffffffffffffffffffff1681525090565b8280546124de90613073565b90600052602060002090601f0160209004810192826125005760008555612547565b82601f1061251957803560ff1916838001178555612547565b82800160010185558215612547579182015b8281111561254657823582559160200191906001019061252b565b5b5090506125549190612558565b5090565b5b80821115612571576000816000905550600101612559565b5090565b60008115159050919050565b61258a81612575565b82525050565b60006020820190506125a56000830184612581565b92915050565b6000604051905090565b600080fd5b600080fd5b6000819050919050565b6125d2816125bf565b81146125dd57600080fd5b50565b6000813590506125ef816125c9565b92915050565b60006020828403121561260b5761260a6125b5565b5b6000612619848285016125e0565b91505092915050565b600081519050919050565b600082825260208201905092915050565b6000819050602082019050919050565b612657816125bf565b82525050565b600081519050919050565b600082825260208201905092915050565b6000819050602082019050919050565b600073ffffffffffffffffffffffffffffffffffffffff82169050919050565b60006126b482612689565b9050919050565b6126c4816126a9565b82525050565b60006126d683836126bb565b60208301905092915050565b6000602082019050919050565b60006126fa8261265d565b6127048185612668565b935061270f83612679565b8060005b8381101561274057815161272788826126ca565b9750612732836126e2565b925050600181019050612713565b5085935050505092915050565b600081519050919050565b600082825260208201905092915050565b60005b8381101561278757808201518184015260208101905061276c565b83811115612796576000848401525b50505050565b6000601f19601f8301169050919050565b60006127b88261274d565b6127c28185612758565b93506127d2818560208601612769565b6127db8161279c565b840191505092915050565b600081519050919050565b600082825260208201905092915050565b6000819050602082019050919050565b600061281e838361264e565b60208301905092915050565b6000602082019050919050565b6000612842826127e6565b61284c81856127f1565b935061285783612802565b8060005b8381101561288857815161286f8882612812565b975061287a8361282a565b92505060018101905061285b565b5085935050505092915050565b600060c0830160008301516128ad600086018261264e565b50602083015184820360208601526128c582826126ef565b915050604083015184820360408601526128df82826127ad565b915050606083015184820360608601526128f98282612837565b915050608083015184820360808601526129138282612837565b91505060a083015161292860a08601826126bb565b508091505092915050565b6000819050919050565b61294681612933565b82525050565b600060608301600083015184820360008601526129698282612895565b915050602083015161297e602086018261293d565b506040830151612991604086018261293d565b508091505092915050565b60006129a8838361294c565b905092915050565b6000602082019050919050565b60006129c882612622565b6129d2818561262d565b9350836020820285016129e48561263e565b8060005b85811015612a205784840389528151612a01858261299c565b9450612a0c836129b0565b925060208a019950506001810190506129e8565b50829750879550505050505092915050565b60006020820190508181036000830152612a4c81846129bd565b905092915050565b600080fd5b600080fd5b600080fd5b60008083601f840112612a7957612a78612a54565b5b8235905067ffffffffffffffff811115612a9657612a95612a59565b5b602083019150836001820283011115612ab257612ab1612a5e565b5b9250929050565b60008060008060408587031215612ad357612ad26125b5565b5b600085013567ffffffffffffffff811115612af157612af06125ba565b5b612afd87828801612a63565b9450945050602085013567ffffffffffffffff811115612b2057612b1f6125ba565b5b612b2c87828801612a63565b925092505092959194509250565b612b4381612933565b82525050565b6000604082019050612b5e6000830185612b3a565b612b6b6020830184612b3a565b9392505050565b612b7b816126a9565b8114612b8657600080fd5b50565b600081359050612b9881612b72565b92915050565b600060208284031215612bb457612bb36125b5565b5b6000612bc284828501612b89565b91505092915050565b612bd4816125bf565b82525050565b6000602082019050612bef6000830184612bcb565b92915050565b60008060208385031215612c0c57612c0b6125b5565b5b600083013567ffffffffffffffff811115612c2a57612c296125ba565b5b612c3685828601612a63565b92509250509250929050565b600060c083016000830151612c5a600086018261264e565b5060208301518482036020860152612c7282826126ef565b91505060408301518482036040860152612c8c82826127ad565b91505060608301518482036060860152612ca68282612837565b91505060808301518482036080860152612cc08282612837565b91505060a0830151612cd560a08601826126bb565b508091505092915050565b60006020820190508181036000830152612cfa8184612c42565b905092915050565b600080fd5b7f4e487b7100000000000000000000000000000000000000000000000000000000600052604160045260246000fd5b612d3f8261279c565b810181811067ffffffffffffffff82111715612d5e57612d5d612d07565b5b80604052505050565b6000612d716125ab565b9050612d7d8282612d36565b919050565b600067ffffffffffffffff821115612d9d57612d9c612d07565b5b612da68261279c565b9050602081019050919050565b82818337600083830152505050565b6000612dd5612dd084612d82565b612d67565b905082815260208101848484011115612df157612df0612d02565b5b612dfc848285612db3565b509392505050565b600082601f830112612e1957612e18612a54565b5b8135612e29848260208601612dc2565b91505092915050565b600060208284031215612e4857612e476125b5565b5b600082013567ffffffffffffffff811115612e6657612e656125ba565b5b612e7284828501612e04565b91505092915050565b612e8481612933565b8114612e8f57600080fd5b50565b600081359050612ea181612e7b565b92915050565b600080600060408486031215612ec057612ebf6125b5565b5b600084013567ffffffffffffffff811115612ede57612edd6125ba565b5b612eea86828701612a63565b93509350506020612efd86828701612e92565b9150509250925092565b600082825260208201905092915050565b6000612f238261274d565b612f2d8185612f07565b9350612f3d818560208601612769565b612f468161279c565b840191505092915050565b612f5a816126a9565b82525050565b6000606082019050612f756000830186612bcb565b8181036020830152612f878185612f18565b9050612f966040830184612f51565b949350505050565b7f4e487b7100000000000000000000000000000000000000000000000000000000600052603260045260246000fd5b7f4e487b7100000000000000000000000000000000000000000000000000000000600052601160045260246000fd5b6000613007826125bf565b91507fffffffffffffffffffffffffffffffffffffffffffffffffffffffffffffffff820361303957613038612fcd565b5b600182019050919050565b7f4e487b7100000000000000000000000000000000000000000000000000000000600052602260045260246000fd5b6000600282049050600182168061308b57607f821691505b60208210810361309e5761309d613044565b5b50919050565b600081905092915050565b60006130bb83856130a4565b93506130c8838584612db3565b82840190509392505050565b60006130e18284866130af565b91508190509392505050565b7f66726f6d5f6e616d65206d757374206265207265676973746572656400000000600082015250565b6000613123601c83612f07565b915061312e826130ed565b602082019050919050565b6000602082019050818103600083015261315281613116565b9050919050565b7f746f5f6e616d65206d7573742062652072656769737465726564000000000000600082015250565b600061318f601a83612f07565b915061319a82613159565b602082019050919050565b600060208201905081810360008301526131be81613182565b9050919050565b7f7265676973746572206265666f726520617474656d7074696e6720746f20726160008201527f7465000000000000000000000000000000000000000000000000000000000000602082015250565b6000613221602283612f07565b915061322c826131c5565b604082019050919050565b6000602082019050818103600083015261325081613214565b9050919050565b7f6e616d65206d757374206265207265676973746572656420746f20756e72617460008201527f6500000000000000000000000000000000000000000000000000000000000000602082015250565b60006132b3602183612f07565b91506132be82613257565b604082019050919050565b600060208201905081810360008301526132e2816132a6565b9050919050565b60006132f4826125bf565b91506132ff836125bf565b92508282101561331257613311612fcd565b5b828203905092915050565b7f4e6f526567697374657265644964656e74697479466f7243616c6c657245727260008201527f6f72000000000000000000000000000000000000000000000000000000000000602082015250565b6000613379602283612f07565b91506133848261331d565b604082019050919050565b600060208201905081810360008301526133a88161336c565b9050919050565b7f526174696e6773206d757374206265206265747765656e202d313020616e642060008201527f2d31206f72203120616e642031302e0000000000000000000000000000000000602082015250565b600061340b602f83612f07565b9150613416826133af565b604082019050919050565b6000602082019050818103600083015261343a816133fe565b9050919050565b7f6e616d65206d757374206265207265676973746572656420746f207261746500600082015250565b6000613477601f83612f07565b915061348282613441565b602082019050919050565b600060208201905081810360008301526134a68161346a565b9050919050565b7f4e616d654e6f74526567697374657265644572726f7200000000000000000000600082015250565b60006134e3601683612f07565b91506134ee826134ad565b602082019050919050565b60006020820190508181036000830152613512816134d6565b9050919050565b7f436c61696d696e6753616d6541646472657373417353656e6465724572726f72600082015250565b600061354f602083612f07565b915061355a82613519565b602082019050919050565b6000602082019050818103600083015261357e81613542565b9050919050565b7f4e6f43616e6469646174654964656e746974794964466f72416464726573734560008201527f72726f7200000000000000000000000000000000000000000000000000000000602082015250565b60006135e1602483612f07565b91506135ec82613585565b604082019050919050565b60006020820190508181036000830152613610816135d4565b9050919050565b7f4e6f526567697374657265644964656e74697479466f7243616e64696461746560008201527f4964656e7469747949644572726f720000000000000000000000000000000000602082015250565b6000613673602f83612f07565b915061367e82613617565b604082019050919050565b600060208201905081810360008301526136a281613666565b9050919050565b7f63616c6c696e67206164647265737320646f6573206e6f74206d61746368206160008201527f6e79206b6e6f776e2061646472657373657320666f722070726f706f7365642060208201527f6964656e74697479000000000000000000000000000000000000000000000000604082015250565b600061372b604883612f07565b9150613736826136a9565b606082019050919050565b6000602082019050818103600083015261375a8161371e565b9050919050565b7f4e616d65546f6f53686f72744572726f72000000000000000000000000000000600082015250565b6000613797601183612f07565b91506137a282613761565b602082019050919050565b600060208201905081810360008301526137c68161378a565b9050919050565b7f4e616d65546f6f4c6f6e674572726f7200000000000000000000000000000000600082015250565b6000613803601083612f07565b915061380e826137cd565b602082019050919050565b60006020820190508181036000830152613832816137f6565b9050919050565b7f4e616d65416c7265616479526567697374657265644572726f72000000000000600082015250565b600061386f601a83612f07565b915061387a82613839565b602082019050919050565b6000602082019050818103600083015261389e81613862565b9050919050565b6138ae81612575565b81146138b957600080fd5b50565b6000815190506138cb816138a5565b92915050565b6000602082840312156138e7576138e66125b5565b5b60006138f5848285016138bc565b91505092915050565b7f53656e646572416c7265616479526567697374657265644572726f7200000000600082015250565b6000613934601c83612f07565b915061393f826138fe565b602082019050919050565b6000602082019050818103600083015261396381613927565b905091905056fea264697066735822122061e9b41f698d71c6a587f2f7efb5f8706fa31e93f7bb50f6827696b236ef7c2464736f6c634300080d0033",
  "immutableReferences": {},
  "source": "// SPDX-License-Identifier: 0BSD\npragma solidity 0.8.13;\n\n\n// TODO add pluggable \"attestation provider\" for softer concepts of claimed identifier, i.e. email, twitter, whatever\n\n// optimistic rollup with proof of rollback and slashing may be a source of revenue\n// searches over the graph of trust will be heavy. can we make a market of indexers?\n\n// need a set_profile_contracts(address[]) and to define the ABI for a profile contract\n// users may want to use multiple profile formats, e.g.\n// -- business listing\n// -- flow of pictures\n// -- etc\n// should these be separate viewers, or types within one stream?\n// currently I lean towards types in one stream, i.e. the profile types\n// emit cards with kinds of content.\n\ncontract WebOfTrust {\n\n    struct Identity {\n        uint256 id;\n        address[] addresses;\n        string name;\n        uint256[] ratings_given;\n        uint256[] ratings_received;\n        address profile;\n    }\n\n    struct Peer {\n        Identity identity;\n        int rating_given;\n        int rating_received;\n    }\n\n    uint256 next_id = 0;\n\n    mapping(string => uint256) public names;\n    mapping(uint256 => Identity) public identities;\n    mapping(address => uint256) public identity_address_proposals;\n    mapping(uint256 => mapping(uint256 => int)) ratings_given;\n    mapping(uint256 => mapping(uint256 => int)) ratings_received;\n\n    function registered() public view returns (bool) {\n        Identity storage candidate_identity = identities[identity_address_proposals[msg.sender]];\n\n        for (uint256 i = 0; i < candidate_identity.addresses.length; i++) {\n            if (candidate_identity.addresses[i] == msg.sender) {\n                return true;\n            }\n        }\n        return false;\n    }\n\n    function register(string calldata name) external {\n        require(bytes(name).length >= 2, \"NameTooShortError\");\n        require(bytes(name).length <= 100, \"NameTooLongError\");\n        require(names[name] == 0, \"NameAlreadyRegisteredError\");\n        require(!this.registered(), \"SenderAlreadyRegisteredError\");\n\n        uint256 identity_id = ++next_id;\n\n        Identity storage identity = identities[identity_id];\n        identity.id = identity_id;\n        identity.addresses.push(msg.sender);\n        identity.name = name;\n\n        identity_address_proposals[msg.sender] = identity.id;\n        names[name] = identity.id;\n    }\n\n    function get_identity() external view returns (Identity memory) {\n        Identity storage candidate_identity = identities[identity_address_proposals[msg.sender]];\n\n        for (uint256 i = 0; i < candidate_identity.addresses.length; i++) {\n            if (candidate_identity.addresses[i] == msg.sender) {\n                return candidate_identity;\n            }\n        }\n\n        revert(\"NoRegisteredIdentityForCallerError\");\n    }\n\n    function get_identity_by_name(string calldata name) external view returns (Identity memory) {\n        return identities[names[name]];\n    }\n\n    function get_identity_by_id(uint256 identity_id) external view returns (Identity memory) {\n        return identities[identity_id];\n    }\n\n    function get_outbound_peers(uint256 identity_id) external view returns (Peer[] memory) {\n        Identity storage source_identity = identities[identity_id];\n\n        uint256 outbound_peers_len = source_identity.ratings_given.length;\n        Peer[] memory outbound_peers = new Peer[](outbound_peers_len);\n\n        for(uint256 i = 0; i < outbound_peers_len; i++) {\n            Identity storage target_identity = identities[source_identity.ratings_given[i]];\n            outbound_peers[i] = Peer(target_identity,\n                                     ratings_given[source_identity.id][target_identity.id],\n                                     ratings_given[target_identity.id][source_identity.id]);\n        }\n\n        return outbound_peers;\n    }\n\n    function get_inbound_peers(uint256 identity_id) external view returns (Peer[] memory) {\n        Identity storage target_identity = identities[identity_id];\n\n        uint256 inbound_peers_len = target_identity.ratings_received.length;\n        Peer[] memory inbound_peers = new Peer[](inbound_peers_len);\n\n        for(uint256 i = 0; i < inbound_peers_len; i++) {\n            Identity storage source_identity = identities[target_identity.ratings_given[i]];\n            inbound_peers[i] = Peer(source_identity,\n                                    ratings_given[source_identity.id][target_identity.id],\n                                    ratings_given[target_identity.id][source_identity.id]);\n        }\n\n        return inbound_peers;\n    }\n\n    function propose_address(string calldata name) external {\n        uint256 identity_id = identities[names[name]].id;\n        require(identity_id > 0, \"NameNotRegisteredError\");\n        identity_address_proposals[msg.sender] = identity_id;\n    }\n\n    function claim_address(address proposed_address) external {\n        require(proposed_address != msg.sender, \"ClaimingSameAddressAsSenderError\");\n\n        uint256 candidate_identity_id = identity_address_proposals[msg.sender];\n        require(candidate_identity_id > 0, \"NoCandidateIdentityIdForAddressError\");\n\n        Identity storage proposed_identity = identities[candidate_identity_id];\n        require(proposed_identity.id > 0, \"NoRegisteredIdentityForCandidateIdentityIdError\");\n\n        for (uint256 i = 0; i < proposed_identity.addresses.length; i++) {\n            address existing_address = proposed_identity.addresses[i];\n\n            if (existing_address == msg.sender && existing_address != proposed_address) {\n                proposed_identity.addresses.push(proposed_address);\n                return;\n            }\n        }\n\n        revert(\"calling address does not match any known addresses for proposed identity\");\n    }\n\n    // need to be able to rate addresses that have not registered a nick\n    function rate(string calldata name, int rating) external {\n        require(-10 <= rating && rating < 0 || 0 < rating && rating <= 10,\n                \"Ratings must be between -10 and -1 or 1 and 10.\");\n        Identity storage my_identity = identities[identity_address_proposals[msg.sender]];\n        require(my_identity.id > 0, \"register before attempting to rate\");\n\n        Identity storage rated_identity = identities[names[name]];\n        require(rated_identity.id > 0, \"name must be registered to rate\");\n\n        if(ratings_given[my_identity.id][rated_identity.id] == 0) {\n            my_identity.ratings_given.push(rated_identity.id);\n            rated_identity.ratings_received.push(my_identity.id);\n        }\n\n        ratings_given[my_identity.id][rated_identity.id] = rating;\n        ratings_received[rated_identity.id][my_identity.id] = rating;\n    }\n\n    function unrate(string calldata name) external {\n        Identity storage my_identity = identities[identity_address_proposals[msg.sender]];\n        require(my_identity.id > 0, \"register before attempting to rate\");\n\n        Identity storage unrated_identity = identities[names[name]];\n        require(unrated_identity.id > 0, \"name must be registered to unrate\");\n\n        for (uint256 i = 0; i < my_identity.ratings_given.length; i++) {\n            if(my_identity.ratings_given[i] == unrated_identity.id) {\n                my_identity.ratings_given[i] =\n                    my_identity.ratings_given[my_identity.ratings_given.length - 1];\n                break;\n            }\n        }\n\n        for (uint256 i = 0; i < unrated_identity.ratings_received.length; i++) {\n            if(unrated_identity.ratings_received[i] == unrated_identity.id) {\n                unrated_identity.ratings_received[i] =\n                    unrated_identity.ratings_received[unrated_identity.ratings_received.length - 1];\n                break;\n            }\n        }\n\n        delete my_identity.ratings_given[unrated_identity.id];\n        delete unrated_identity.ratings_received[my_identity.id];\n    }\n\n    // can the all-paths graph traversal problem be solved via signature aggregation\n    // where each node bears some indication of its L2 connections\n    function gettrust(string calldata from_name, string calldata to_name) external view returns (int, int) {\n        uint256 from_identity_id = names[from_name];\n        require(from_identity_id > 0, \"from_name must be registered\");\n\n        uint256 to_identity_id = names[to_name];\n        require(to_identity_id > 0, \"to_name must be registered\");\n\n        uint256 l2 = 0;\n        Identity memory from_identity = identities[from_identity_id];\n        for (uint256 i = 0; i < from_identity.ratings_given.length; i++) {\n        }\n\n        return (ratings_given[from_identity_id][to_identity_id], 0);\n    }\n}\n",
  "sourcePath": "/home/trinque/src/logos/storage/eth/contracts/WebOfTrust.sol",
  "compiler": {
    "name": "solc",
    "version": "0.8.13+commit.abaa5c0e.Emscripten.clang"
  },
  "schemaVersion": "3.4.10",
  "updatedAt": "2022-09-16T22:12:52.337Z",
  "networkType": "ethereum",
  "devdoc": {
    "kind": "dev",
    "methods": {},
    "version": 1
  },
  "userdoc": {
    "kind": "user",
    "methods": {},
    "version": 1
  }
}